:101A3F00CFB5CDB3C6F4B6AFD6D000D6C7C4DCD3BE
:101A4F00EFD2F4B7E7C9C800CEF7B1B1C3F1D7E50C
:101A5F00B4F3D1A700CDF5D5D1CEE4B5CBCCECBD49
:101A6F00F00057656C636F6D652100B3F5CABCBBA1
:101A7F00AFCDEAB3C900B7E7C9C8D2D1B4F2BFAA94
:101A8F0000B8DFCBD9C3FCC1EECAB6B1F0B3C9B948
:101A9F00A600B5CDCBD9C3FCC1EECAB6B1F0B3C960
:101AAF00B9A600B9D8B1D5C3FCC1EECAB6B1F0B36F
:0F1ABF00C9B9A600CFB5CDB3C3A6C2B5D6D00066
:0F1BC600010D004100A7004100A6004100A5004D
:10159D00C2B4122161122074121E1612204BE4786F
:1015AD000DF6121F507BFF7A1A793FE4FF1214CC0F
:1015BD007BFF7A1A794A7D017F01121C8A7BFF7AA3
:1015CD001A79577D017F02121C8A7BFF7A1A796482
:1015DD007D017F03121C8A7BFF7A1A79717D027F50
:1015ED0004121C8A1221F91221F91221F91221F982
:1015FD001221F91221F91221F91221F9121F50129B
:10160D001E977F011221977BFF7A1A797AE4FF12D8
:10161D0014CC1221F91217D1121088780DE614602E
:10162D00F424F1601824DF60EC24317020780D76FD
:10163D0001121CE2EF70DE780D763180D812222770
:10164D00780FEFF612171AE4780DF680C8E4780DCE
:03165D00F680C252
:10216100B2C21221F9B2C21221F9B2C21221F9B2DC
:0C217100C21221F9B2C21221F9B2C2223E
:102074007580FF7590FF75A0FF75B0FF75C0FF7583
:102084008902758C9B758A9BC28CD2A9C2B4C2C3C7
:07209400D289D2A8D2AF22CD
:03000B00021D894A
:101D8900C0E0C083C082C0D075D000C006C0079033
:101D990000A6E0FF70089000A5E09000A4F0900074
:101DA900A4E0FEEFC39E5004D2B48002C2B49000F6
:101DB900A6E004F0E0C394644002E4F0D007D00642
:091DC900D0D0D082D083D0E032EA
:03000300021ED604
:101ED600C0E0C0F0C083C082C0D075D000C000C0D2
:101EE60001C002C003C004C005C006C00712191510
:101EF6001217D1D007D006D005D004D003D002D017
:0E1F060001D000D0D0D082D083D0F0D0E03215
:10171A00900001EFF0701A7BFF7A1A7985FF121494
:10172A00CC1221F99000A77401F0C2C29000AAF06D
:10173A00229000A7E0640160030217D0D2C2900091
:10174A0001E024FE70030217D024FE602F146049C2
:10175A0024EF607214606F24E8606B242E70537B50
:10176A00FF7A1A7990E4FF1214CC1221F99000AA98
:10177A007402F0D28C9000A57464F0227BFF7A1A6E
:10178A0079A1E4FF1214CC1221F99000AA7403F093
:10179A00D28C9000A57432F0227BFF7A1A79B2E4D7
:1017AA00FF1214CC1221F99000AA7404F0C28CC260
:1017BA00B4229000AA7405F07BFF7A1A79C3E4FF79
:0717CA001214CC1221F922D8
:1013FA006461206B61692066656E67207368616E3F
:10140A0000000000716920646F6E6720786920749B
:10141A006F6E67000000000067616F20737500003F
:10142A000000000000000000000000006469207352
:10143A00750000000000000000000000000000002D
:10144A006775616E2062692066656E6720736861E0
:10145A006E0000006775616E2062692078692074E9
:10146A006F6E6700000000006B61690000000000F9
:10147A000000000000000000000000006775616EB7
:10148A000000000000000000000000000000000052
:10149A0066656E67207368616E00000000000000D8
:1014AA000000000000000000000000000000000032
:1014BA000000000000000000000201040516172FBA
:0214CA00000020
:101E1600D2B57F017E007D007C0012217DC2B57F98
:101E2600017E007D007C0012217DD2B57F017E00FF
:101E36007D007C0012217DC2A17F017E007D007C99
:101E46000012217DD2A17F017E007D007C0002214F
:011E56007D0E
:101879007F061222117D357F171222067F0A7E000C
:101889007D007C0012217D7F061222117D037F8954
:101899001222067F057E007D007C0012217D7D439A
:1018A9007FCF1222067F057E007D007C0012217DFC
:1018B9007D027FCB1222067D0A7F11122206E4FDEA
:1018C9007F1E1222067D3F7F191222067D487F1B4B
:1018D9001222067D1F7F1D1222067F0A7E007D00CF
:1018E9007C0012217D7D047FCD1222067F057E00BA
:1018F9007D007C0012217DE4FD7FB91222067D4F17
:0C1909007FCF1222067DFF7F6F022206B6
:101C2500121879E4FD7FBD1222067D487F17122226
:101C3500067F0A7E007D007C0012217D7D807F3C31
:101C45001222067D077F3E1222067DFF7F38122273
:101C5500067D077F3A122206E4FD7F401222067DAB
:101C6500087F42122206E4FD7F441222067D087F8A
:0F1C7500461222067F017E007D007C0002217D49
:10191500E4900000F0C2A87F2B122211780EA607D2
:10192500E4FD7F29122206E4FD7F02122206780ECD
:10193500E630E42D7FB2122211EF642170237FBFC0
:10194500122211BF351B7FBA122211900000EFF051
:10195500D39400400CE0D394045006780D761080A3
:1019650004780D7611E4FD7F2B122206E4FD7F1C21
:10197500122206E4FD7F29122206E4FD7F021222CF
:1019850006E4FD7F2B122206E4FD7FBA122206E44F
:10199500FD7FBC1222067D017F08122206E4FD7F31
:0619A50008122206D2A880
:0119AB002219
:101CE200E4900001F0A3F0900001F01200067F32B0
:101CF2007E007D007C0012217D121660EF70028052
:101D0200117F0A7E007D007C0012217D1219ACEF4A
:101D12007010121E167F327E007D007C0012217D23
:101D220080089000027401F0800C900001E004F041
:0B1D3200E0C3940540B5900002E0FF04
:011D3D002283
:101F8B00E4900007F0900006F07FB2122211BF21FF
:101F9B00089000077401F080177F0A7E007D007C9B
:101FAB000012217D900006E004F0E0C3940A40D9B2
:051FBB00900007E0FFAB
:011FC00022FE
:03000600021C25B4
:1019AC00C2A87D557F351222067D097F1C122206A6
:1019BC007D207FBD1222067D017F081222067F0149
:1019CC007E007D007C0012217DE4FD7F0812220642
:1019DC007F017E007D007C0012217D121F8BEF7039
:1019EC0002FF227D0B7F1C1222067DFF7FB212228A
:1019FC00067F017E007D007C0012217D7D067F37F5
:101A0C001222067F017E007D007C0012217D7D0666
:101A1C007F371222067F057E007D007C0012217D1F
:101A2C007D107F29122206E4FD7FBD122206D2A86A
:031A3C007F012205
:101660009000047401F0E4900003F0121F8BEF70FF
:1016700007900004F0021714900003E09014C29346
:10168000FD7FC1122206E4FD7FC31222067D047F86
:10169000081222067F017E007D007C0012217DE47D
:1016A000FD7F081222067F017E007D007C00122152
:1016B0007DE4900005F0900005E0FFC39414502DE8
:1016C000900003E075F014A424FAF582E43413F5D5
:1016D00083E5822FF582E43583F583E493FD600D85
:1016E0007F05122206900005E004F080C9900005F5
:1016F000E0FD7FB91222067DFF7FB21222067D0433
:101700007F37122206900003E004F0E0C3940A50F1
:091710000302166B900004E0FFD7
:0117190022AD
:062227007FC51222112206
:0B220600908100EFF0908000EDF022CE
:0B221100908100EFF0908000E0FF22C1
:1021AF007D027C00ED1DAA0470011C4A6008AE0779
:0621BF001FEE60F080F845
:0121C50022F7
:10210500D2C100C2C17F4B1221AFD2C17F041221BF
:0F211500AFA2C192007F141221AFD2C100A2006D
:012124002298
:02214400A907E9
:10214600E4FBC2C100E91392C17F0A1221AFD2C1DA
:0A21560000E9C313F90BEBB408E82D
:01216000225C
:101FC100E4FBC2C10000D2C10000A2C1E433900011
:101FD1002EF07F0A1221AFD2C10000E0C4333333A7
:0F1FE1005480FFE9C3134FF90BEBB408D5AF01E0
:011FF00022CE
:101D3E001221057FCC1221447F4412214412210529
:101D4E007FCC1221447FBE122144121FC190002D60
:101D5E00EFF0121FC1EFFE90002DE0FDEDFFAC067F
:101D6E00E4120229E4FBFA7920783F12011EE4FB0B
:0A1D7E00FAF9783F12002D120262FC
:011D88002238
:100CD400CFD6D4DACAB1BCE42564D5FB00B9D8B107
:100CE400D500B4F2BFAA00B8DFCBD900B5CDCBD9BB
:100CF400005761697400D6DCC8D500D6DCD2BB00CD
:100D0400D6DCB6FE00D6DCC800D6DCCBC400D6DC0C
:100D1400CEE500D6DCC1F900000303060104060297
:100D24000500030500003FFC5FFA6FF6700E700EBD
:100D3400700E700E700E700E700E700E700E6006D7
:100D44004002000040026006700E700E700E700EBD
:100D5400700E700E700E700E700E6FF65FFA3FFC20
:100D64000000000000000020006000E000E000E05F
:100D740000E000E000E000E000E000E000600020AF
:100D840000000020006000E000E000E000E000E07F
:100D940000E000E000E000E000E00060002000006F
:100DA4000000000000003FFC1FFA0FF6000E000ECA
:100DB400000E000E000E000E000E000E000E0006C7
:100DC4001FFA3FFC5FF86000700070007000700054
:100DD400700070007000700070006FF85FFC3FFEE0
:100DE4000000000000003FFC1FFA0FF6000E000E8A
:100DF400000E000E000E000E000E000E000E000687
:100E04001FFA3FFC1FFA0006000E000E000E000E33
:100E1400000E000E000E000E000E0FF61FFA3FFC2F
:100E240000000000000040026006700E700E700E9C
:100E3400700E700E700E700E700E700E700E6006D6
:100E44005FFA3FFC1FFA0006000E000E000E000EB3
:100E5400000E000E000E000E000E000E0006000232
:100E64000000000000003FFC5FF86FF070007000AD
:100E740070007000700070007000700070006000FE
:100E84005FF83FFC1FFA0006000E000E000E000E75
:100E9400000E000E000E000E000E0FF61FFA3FFCAF
:100EA4000000000000003FFC5FF86FF0700070006D
:100EB40070007000700070007000700070006000BE
:100EC4005FF83FFC5FFA6006700E700E700E700ED5
:100ED400700E700E700E700E700E6FF65FFA3FFC9F
:100EE4000000000000003FFC1FFA0FF6000E000E89
:100EF400000E000E000E000E000E000E000E000686
:100F04000002000000020006000E000E000E000E9B
:100F1400000E000E000E000E000E0006000200007F
:100F24000000000000003FFC5FFA6FF6700E700EC8
:100F3400700E700E700E700E700E700E700E6006D5
:100F44005FFA3FFC5FFA6006700E700E700E700E52
:100F5400700E700E700E700E700E6FF65FFA3FFC1E
:100F64000000000000003FFC5FFA6FF6700E700E88
:100F7400700E700E700E700E700E700E700E600695
:100F84005FFA3FFC1FFA0006000E000E000E000E72
:100F9400000E000E000E000E000E1FF63FFA7FFC3E
:100FA400000000000000000000000000000000003D
:100FB40007E007E007E007E007E007E000000000C3
:100FC40000000000000000000000000007E007E04F
:100FD40007E007E007E007E0000000000000000071
:100FE40000000000000000000000000000000000FD
:100FF40007E007E007E007E007E007E00000000083
:1010040000000000000000000000000007E007E00E
:1010140007E007E007E007E0000000000000000030
:101024000000000000003000480049C033E80638E2
:101034000C180C080C000C000C000C000608031023
:1010440001E00000000001800240024002C00240B2
:1010540002C0024002C0024003C007E00FF00FF0DC
:1010640007E003C0000003C0081003001388000059
:1010740001F007701608060004200180000003C078
:0410840007E0000081
:041BD5004100AA0021
:101E97007F34122197E4900001F0900001E0FFC326
:101EA7009420502AEF2480FF1221977F80122197D8
:101EB700E4900002F0E4FF12212C900002E004F00D
:0E1EC700E0C3942040EF900001E004F080CCD6
:011ED50022EA
:1021DA00C2A7D2A6D2A57590FFE59020E7FBC2A5BB
:0121EA0022D2
:102197001221DAC2A7C2A6C2A58F9000000000D202
:0821A700A500000000C2A52202
:0721250075F00A842430FF6D
:10212C001221DAD2A7C2A6C2A58F9000000000D25D
:08213C00A500000000C2A5226D
:101F50007F301221977F057E001220C27F0212215E
:101F6000977F057E001220C27F0C1221977F057E8D
:101F7000001220C27F061221971F7E001220C27F0E
:0B1F8000011221977F057E000220C2A5
:101E5700EB75F00A84FCEB75F00A84ABF0EFB40184
:101E670004ED2480FEEFB40204ED2490FEEFB403EA
:101E770004ED2488FEEFB40404ED2498FEAF0612A7
:101E87002197EC2430FF12212CEB2430FF02212C68
:061C84007BFF7D017F04DF
:0B1C8A0090002DEBF0A3EAF0A3E9F0BE
:101C9500EFB40104ED2480FEEFB40204ED2490FEC0
:101CA500EFB40304ED2488FEEFB40404ED2498FE9C
:101CB500AF0612219790002DE0FBA3E0FAA3E0F90F
:101CC50012062B601790002DA3E475F0011206D8BB
:0C1CD500A9F0FA12062BFF12212C80D976
:011CE10022E0
:10131A00E075F040A42428F9740D35F0FA900032F3
:09132A007420F0A37410F00DFF13
:0813330090002DEFF0A3EDF096
:10133B007F36122197900033E0FF54077009EF13AB
:10134B001313541FF0800B900033E0131313541F2F
:10135B0004F0E4900034F0900032E0FF900034E0B1
:10136B00FEC39F40030213F5EEFF90002DE02FFF0D
:10137B00E433FED3EF941FEE64809480401690000C
:10138B0034E0FF90002DE02F2460FF122197A3E0A3
:10139B002488801690002DE02480FF900034E02FED
:1013AB00FF12219790002EE02480FF122197E490EA
:1013BB000035F0900033E0FF900035E0C39F5021E3
:1013CB00900034E08FF0A4FFA3E02FF582E435F01A
:1013DB00F583120644FF12212C900035E004F080B7
:0F13EB00D2900034E004F00213627F30022197A9
:10108800121D3E90002CEFF0900085E075F040A412
:101098002428F9740D35F0FA7BFF9000327420F0A3
:1010A800A37410F0E4FD7F1012133390008612131E
:1010B8001A900087E075F040A42428F9740D35F0E3
:1010C800FA9000327420F0A37410F07D03FF12131D
:1010D8003390008812131A900089E075F040A42418
:1010E80028F9740D35F0FA9000327420F0A37410CA
:1010F800F07D06FF12133390008A12131A7A0F79C3
:10110800A89000327420F0A37410F07D027F1112B1
:1011180013339000327420F0A37410F07D057F1112
:10112800121333900087E0703BA3E07037A3E070A0
:1011380033A3E0702F900030EBF0A3740CF0A3748D
:10114800D4F0900086E0FF900085E02F900033F007
:101158007B017A0079011208B67B017A007901E4F3
:10116800FF1214CC9000AAE0FF6003B4040A12171F
:10117800D17A0C79E1121C849000AAE0B4010A1219
:1011880017D17A0C79E6121C849000AAE0B4020CFC
:101198001217D17BFF7A0C79EB121C869000AAE01B
:1011A800B4030C1217D17BFF7A0C79F0121C8690CD
:1011B80000AAE0B4050C1217D17BFF7A0C79F5125E
:1011C8001C867BFF7A1079689000327410F0A3F0C7
:1011D800E4FD7F301213337A10794890003274108E
:1011E800F0A3F07D047F301213337A107928900031
:1011F800327410F0A3F07D077F3012133390007D16
:10120800E075F00AA4FFA3E02FFF900029F09000FA
:1012180081E075F00AA4FEA3E02E90002AF0FD906C
:101228000083E075F00AA4FEA3E02EFE90002BF0E8
:10123800FB121FF1AA077B14E4FD7F01121E5790D1
:101248000029E0FB0D7F01121E577F2D12212CA3D0
:10125800E0122125E075F00A84E5F02430FF122120
:101268002C7F2D12212CA3E0FB7D047F01121E5739
:10127800EAB407005059901285F828287302129A88
:101288000212A20212AA0212B20212BA0212C20276
:1012980012CA7BFF7A0C79FA802E7BFF7A0C79FFD1
:1012A80080267BFF7A0D7904801E7BFF7A0D7909F1
:1012B80080167BFF7A0D790D800E7BFF7A0D7912EF
:1012C80080067BFF7A0D79177D067F01121C8A7FC5
:1012D8009D12219790002CE0FF7E007C037DE81290
:1012E80006837E007F64CFCDCFCECCCE120683EFAF
:1012F8002430FF12212CE075F06484E5F0122125DA
:101308007F2E12212CE075F00A84E5F02430FF02CC
:02131800212C86
:101BD90047006F12010A010A130C4700768C8A88A4
:0E1BE900868482804700688D8B898785838182
:1021C600E4FEC2A4EF1392A3EFC313FFD2A40EEE54
:0321D600B408EF5B
:0121D90022E3
:1020E400C2B3000000C2A4000000D2B3000000127A
:1020F40021C6AF051221C6C2B3000000D2A3D2A4E8
:0121040022B8
:101F1400C2B3000000C2A4000000D2B3000000124B
:101F240021C6E4FFD2A3EDC313FDC2A430A303442E
:101F340080FDD2A4C2A30FEFB408E9C2B30000002D
:0B1F4400C2A4000000D2A4D2A3AF058D
:011F4F00226F
:101B5A00E4FC746F2CF582E43400F583E0FF75F041
:101B6A000A84FE746F2CF582E43400F583EF75F075
:101B7A000A84E5F0F0EEC454F0FF746F2CF582E4A9
:101B8A003400F583E02FF00CECB407C6E4FD7F8E39
:101B9A001220E4E4FC74762CF582E43400F583E048
:101BAA00FF746F2CF582E43400F583E0FD1220E423
:0C1BBA000CECB407E07D807F8E0220E47C
:1017D100E4FC74682CF582E43400F583E0FF121F09
:1017E10014746F2CF582E43400F583EFF00CECB443
:1017F10007E0900075E0FE540F90008AF0EEC454AB
:101801000F900089F0900074E0FE540F900088F072
:10181100EEC4540F900087F0900073E0FE540F90D7
:101821000086F0EEC4540F900085F0900072E0FE47
:10183100540F900084F0EEC4540F900083F0900098
:1018410071E0FE540F900082F0EEC4540F900081BD
:10185100F0900070E0FE540F900080F0EEC4540F41
:1018610090007FF090006FE0FE540F90007EF0EE4C
:07187100C4540F90007DF04C
:01187800224D
:101FF100EF2464FF1313543F2F75F00784AEF0EE06
:102001002BFEED900D1B932EFEEF54037007EDC3D5
:0C201100940350011EEE75F00784AFF040
:01201D0022A0
:0A221C0000007F057E49DEFEDFFCB6
:012226002295
:10217D0090000812073190000874FF1206FEEC4D16
:0A218D004E4F600512221C80ED2267
:0C21F9007F117ED07D1BDDFEDEFCDFFAD6
:0122050022B6
:0A20C200EF1FAC0670011E4C601702
:1020CC00E4900001F0900001E0C394FA50E80000A5
:0720DC000000E004F080EEBB
:0120E30022DA
:051BF7004200A825805A
:10204B007598507589209000A8E0FEA3E0FBAA06C6
:10205B00E4F9F8FF7EE1FDFC121DD21206EE8F8B28
:09206B008F8DD28ED2ACD2AF22CF
:03002300020009CF
:0100090032C4
:0E21EB00C2ACC2998F993099FDC299D2AC2234
:0B201E00900065EBF0A3EAF0A3E9F0EE
:10202900E4FEEEC39D501A900065E0FBA3E475F051
:10203900011206D8A9F0FA12062BFF1221EB0E8025
:01204900E1B5
:01204A002273
:101BFC0045008BFD000202FD45009FFD000203FC29
:101C0C00450095FD000204FB45009AFD000221DE13
:081C1C00450090FD00028877ED
:0E14CC0090002DEFF0A3EBF0A3EAF0A3E9F0FF
:1014DA00E4900064F0FDFC12000E900063EFF090BF
:1014EA00003174FDF0E4A3F0EF2403A3F0A3740128
:1014FA00F090002DE0C454F04401900035F0E4FC73
:10150A00FD900064E0FF74312DF582E43400F58328
:10151A00E0FEEF6E900064F00DBD00010CED640575
:10152A004C70DEE4FCFD900063E0FFC3ED9FEC9499
:10153A00005023A3E0FF90002EE0FBA3E0FAA3E013
:10154A00F98D828C83120644FEEF6E900064F00DD2
:10155A00BD00010C80D0900063E0FF7E0078367CED
:10156A00007D0190002EE0FBA3E0FAA3E0F9120649
:10157A0005900064E0FF900063E0FE2436F582E403
:10158A003400F583EFF07B017A007931EE2406FD11
:03159A0002201E0E
:100026000202CEE86480F8E933E83360110460F038
:10003600ED33EC337009E8FCE9FDEAFEEBFF220440
:1000460060DED3EB9FEA9EE99DE8C2E78CF0C2F73B
:1000560095F0400CE8CCF8E9CDF9EACEFAEBCFFB07
:1000660012029985D0F05804700320D5B3E80470C5
:10007600075002B2D50202D892D5EC0460F7E4CC60
:10008600C0E0C398F8603B94186008400DD0E0FBD0
:100096000202B0E4FBFAC9FC8028E830E406E4C9B1
:1000A600FBE4CAFCE830E305E4C9CACBFCE8540724
:1000B6006010F8C3E913F9EA13FAEB13FBEC13FC2F
:1000C600D8F130F52FC3E49CFCEF9BFFEE9AFEEDD2
:1000D60099FDD0E0FBEF4E4D4C701222DB0302027D
:1000E600D5EC2CFCEF33FFEE33FEED33FDED30E7C0
:1000F600EB0202B0EF2BFFEE3AFEED39FDD0E0FB4E
:1001060050130BBB00030202D8ED13FDEE13FEEFF6
:0801160013FFEC13FC0202B020
:10011E00EC4D6011E8497017ED33EC3304600DE4DB
:10012E00FCFFFEFD22E933E8330470F80202CE1222
:10013E00029958046009E4CC248150062850090223
:10014E0002D82840030202D5C0E0EB4A7044B980C1
:10015E0006D0E0FB0202C4EF4E701CBD8008EBFF20
:10016E00EAFEE9FD80EBE98DF0A4FEE5F002020760
:10017E00E9CDF9EAFEEBFFEF89F0A4FCE5F0CE89BC
:10018E00F0A42EFFE435F0CD89F0A42DFEE435F079
:10019E008067EF4E7005BD80D780C3EF8BF0A4ACA7
:1001AE00F0EE8BF0A42CFCE435F0F8EF8AF0A42CE2
:1001BE00E5F038FCE433CB8DF0A42CFCE5F03BF8F5
:1001CE00EE8AF0A42CFCE5F038F8E433CF89F0A4E5
:1001DE002CFCE5F038CF3400CE89F0A42FFFE5F0EB
:1001EE003EFEE433C98DF0A42EFEE5F039CD8AF043
:1001FE00A42FFFE5F03EFEE43DFD33D0E0FB5007BB
:10020E000BBB000F0202D8EC2CFCEF33FFEE33FEDB
:06021E00ED33FD0202B009
:1002240075F020800E75F010800575F0087D007E55
:10023400007F003392D530D5031206EEEC33401024
:10024400EF33FFEE33FEED33FDEC33FCD5F0ED225E
:0E025400E5F0247EA2D513CC92E7CDCEFF229A
:10026200EDD2E7CD33EC3392D524814006E4FFFE94
:10027200FDFC22FCE4CFCECDCC24E0501174FF80F3
:10028200EDC3CC13CCCD13CDCE13CECF13CF047090
:07029200F030D5DE0206EE9C
:10085100E5082430F582E43400F583E005082290B0
:10086100002D300703900030E475F00112073D02BE
:10087100062B2000E97F2ED2008018EF540F249020
:10088100D43440D4FF30040BEF24BFB41A0050031A
:100891002461FFE50960021509050CE50C700205EC
:1008A1000B30070E90002DE475F00112073DEF02A9
:1008B100067102209B7403D2078003E4C207F50886
:1008C10090002D120754E4F509F50BF50CE50960CC
:1008D100077F2012089480F5750AFFC201C200C289
:1008E10002C203C205C206C208120860FF700D30C1
:1008F10007057F001208A5AF0CAE0B22B4255FC21D
:10090100D5C204120860FF24D0B40A00501A75F051
:100911000A780930D50508B6FF0106C6A426F620D7
:10092100D5047002D20380D924CFB41A00EF500449
:10093100C2E5D204020B97D20180C6D20080C0D298
:100941000280BCD2D580BAD20580B47F201208942F
:100951002002077401B5090040F1120851FF120885
:10096100940208CED208D2068095120851FB1208D3
:1009710051FA120851F94A4B700679957A0C7BFFAE
:1009810020022EE509602A7E008E82758300120600
:100991004460060EEE650A70F0C2D5EBC0E0EAC015
:1009A100E0E9C0E0EE120BF8D0E0F9D0E0FAD0E0D7
:1009B100FB12062BFF60AAEBC0E0EAC0E0E9C0E051
:1009C100120894D0E02401F9D0E03400FAD0E0FB21
:1009D100E50A0460DCD50AD98087D20280A2120B15
:1009E100DA60F7E50A7001041202E3A90A600DE575
:1009F1000A600914F50A120C82EF60F3EA30E7028B
:100A0100F404C3995079EAF4250A0430E701E404B7
:100A1100F50A800D120BDA60C1EA050A250A1202F5
:100A2100E3EA90005CF030E701E4250A04D50A040A
:100A310020050114120BF8E4C0E0120C8290005C56
:100A4100E0601320E70714F012087C802204F0D044
:100A5100E014C0E07F0012087CE50A600712087309
:100A6100150A800B300503120873D0E00208CED0BE
:100A7100E00480C4120BDA609EE50A041202E390DE
:100A8100005CEAF0E50A2005026001042404120B6F
:010A9100F86C
:100A920074FF04C0E0120C8212087CE50A200502F1
:100AA2006003120873D0E0B50AE87F451208869009
:100AB200005CE07F2B30E7047F2DF404C0E01208D5
:100AC20094D0E075F00A84C0F012087DD0E01208DC
:100AD2007D0208CE791080027908C206C208800819
:100AE200D2D5790A8004790AC2D5E50A047002F5E2
:100AF2000AE4FAFDFEFF120851FC7B0820011312E2
:100B02000851FD7B1030000A120851FE120851FFF5
:100B12007B20EC3382D592D55013C3E43000069F7C
:100B2200FFE49EFEE42001039DFDE49CFCE4CBF87F
:100B3200C201EC700CCFCECDCCE824F8F870F38073
:100B420017C3EF33FFEE33FEED33FDEC33FCEB3333
:100B5200FB994002FB0FD8E9EB300105F8D0E0C465
:100B620048B201C0E00AEC4D4E4F78207B0070C2C3
:100B7200EAB50A0040BCC0E0120BFAD0F0D0E02087
:100B82000104C4C0E0C4B201C0F012087DD0F0D5A7
:100B9200F0EB0208CE12075D096B530AD658093CE6
:100BA2004C0938420ADA4F0AE2440AE2490951433F
:100BB2000AE8550A15460A754509DF470CB550097A
:100BC200402D09442E09672B0948230965200C9EF4
:100BD2002A0900480000095FE50AB4FF03750A0606
:100BE200120851FC120851FD120851FE120851FF61
:100BF200900055020320790AA2D52003143005097A
:100C0200B910020404B9080104A2D5200602500159
:100C1200042002689202B509005034C0E07F2030FF
:100C220003197F30A20272067205500F120C51C2D4
:100C320002C206C205C2087F30800F300503E9C038
:100C4200E0120894300503D0E0F9D0E0B509CC30C9
:100C520005177F30B9100C1208947F583004077FB3
:100C6200788003B908031208943002057F2D020828
:100C7200947F202008F87F2B2006F322920280CF57
:100C82007F00B40700500B2455F582E43400F5834D
:100C9200E0FF22286E756C6C2900D20112085130D7
:100CA20001F8C201780930D50108F60209002D5079
:100CB2004349581208512403B405004001E4900C42
:100CC200B093120885743A120885D203750904029A
:020CD2000AD640
:10029900E9D2E7C933E833F892D5EDD2E7CD33ECAB
:0702A90033FC5002B2D52224
:1002B000EC30E7100FBF000C0EBE00080DBD0004AF
:1002C0000BEB6014A2D5EB13FCED92E7FD2274FF5B
:1002D000FCFDFEFF22E480F8A2D574FF13FC7D80B4
:0302E000E480EFC8
:1002E300F920E73624F950037907E4F42402FBE507
:1002F30082158270021583DBF6E024FB501BE96054
:1003030014E4F0E582158270021583E004F0B40A68
:0D03130008E4F0D9EE7401F00A22C2D522F0
:10032000ED33EC3392D5FA602AB4FF33EDC2E77BAC
:10033000FF60067A037945E4227A03794E20D504DA
:100340007A037949224E614E002B494E46002D49D1
:100350004E4600E47A08F0A3DAFC7B00740722C062
:1003600083C082ECC0E0EDC0E0EEC0E0EFC0E0EAA8
:1003700075F010A4CAABF075F04DA42BFBE435F07A
:10038000FCEA2410FAEB34C5FBEC34D9FCEDC2E7EF
:10039000FF75F056A4F42411C5F0F434C58FF0A411
:1003A0002AE5F03BE43CF020E7141204F5D0E0FF2E
:1003B000D0E0FED0E0FDD0E0FC1204288014F4046C
:1003C0001204F5D0E0FFD0E0FED0E0FDD0E0FC125A
:1003D000011ED082D083E0FAEDD2E7CD33EC332496
:1003E00082FBE4C3CF33CFCE33CECD33CD33DBF37B
:1003F0007B0775F00A846004F0A31B0AE5F0F0A304
:100400008FF0740AA4FFACF08EF0740AA42CFEAC3A
:10041000F050010C8DF0740AA42CFDE435F0F0A32B
:05042000DBDE74072281
:100425000202D8EC5D046005E8590470030202CEAF
:10043500120299580460F6EC4860F2EC7004FDFE77
:10044500FF22C860DB2481C85009C39860025006AA
:100455000202D59850CAF582E9294B4A7005AB824C
:100465000202C475F0007C1A7880C3EF9BEE9AED0A
:1004750099400DC3EF9BFFEE9AFEED99FDE842F022
:10048500DC23ACF0D0E0FFD0E0FED0E0FDAB822075
:10049500E7101BEB60BAEC2CFCEF33FFEE33FEEDFF
:1004A50033FD0202B0E803F830E705C0F075F0004F
:1004B500EF2FFFEE33FEED33FD40B830E7C280AAE3
:1004C5003F8000004120000042C80000447A00003F
:1004D500461C400047C35000497424004B189680C1
:1004E5004CBEBC205A0E1BCA6753C21C749DC5AEB8
:1004F500FB60065407601C2323120523EB54386068
:100505000912050F12051E12011EECF8EDF9EEFA9F
:10051500EFCB22EB12051E80F1543803241C900406
:10052500C5FE93FC0EEE93FD0EEE930ECE93FF22C9
:03000000021ACE13
:0C1ACE00787FE4F6D8FD758121021B151D
:10053500E709F608DFFA8046E709F208DFFA803EA8
:1005450088828C83E709F0A3DFFA8032E309F60895
:10055500DFFA8078E309F208DFFA807088828C83FD
:10056500E309F0A3DFFA806489828A83E0A3F608B1
:10057500DFFA805889828A83E0A3F208DFFA804C8B
:1005850080D280FA80C680D4806980F28033801062
:1005950080A680EA809A80A880DA80E280CA8033CB
:1005A50089828A83ECFAE493A3C8C582C8CCC58343
:1005B500CCF0A3C8C582C8CCC583CCDFE9DEE78013
:1005C5000D89828A83E493A3F608DFF9ECFAA9F092
:1005D500EDFB2289828A83ECFAE0A3C8C582C8CCE8
:1005E500C583CCF0A3C8C582C8CCC583CCDFEADE01
:1005F500E880DB89828A83E493A3F208DFF980CC63
:1006050088F0EF60010E4E60C388F0ED2402B4045B
:100615000050B9F582EB2402B4040050AF23234502
:060625008223900585739D
:10062B00BB010689828A83E0225002E722BBFE02CD
:09063B00E32289828A83E4932200
:10064400BB010CE58229F582E5833AF583E022506B
:1006540006E92582F8E622BBFE06E92582F8E222B5
:0D066400E58229F582E5833AF583E49322CF
:10067100BB010689828A83F0225002F722BBFE0168
:02068100F32262
:10068300BC000BBE0029EF8DF084FFADF022E4CC5B
:10069300F875F008EF2FFFEE33FEEC33FCEE9DEC24
:1006A300984005FCEE9DFE0FD5F0E9E4CEFD22ED6A
:1006B300F8F5F0EE8420D21CFEADF075F008EF2FB4
:1006C300FFED33FD4007985006D5F0F222C398FDA5
:0506D3000FD5F0EA2242
:1006D800A3F8E0C5F025F0F0E582158270021583D5
:0606E800E0C838F0E82232
:101DD200C2D5E830E70FB2D5E4C39BFBE49AFAE43C
:101DE20099F9E498F8EC30E717B2D5121E081207F9
:101DF200BFE4C39BFBE49AFAE499F9E498F8800300
:101E02001207BF30D50DE4C39FFFE49EFEE49DFDA3
:041E1200E49CFC222E
:0E06EE00C3E49FFFE49EFEE49DFDE49CFC221D
:1006FC007401FF3395E0FEFDFCA3A3A3E0CF2FF024
:10070C00E582158270021583E0CE3EF0E5821582FB
:10071C0070021583E0CD3DF0E582158270021583E1
:05072C00E0CC3CF022CE
:0C073100ECF0A3EDF0A3EEF0A3EFF0223B
:10073D00F8E0FBA3A3E0F925F0F0E5821582700245
:07074D001583E0FA38F022E9
:09075400EBF0A3EAF0A3E9F022A6
:10075D00D083D082F8E4937012740193700DA3A32B
:10076D0093F8740193F5828883E47374029368603F
:06077D00EFA3A3A380DF3F
:10209B00EFB40A07740D1220A6740A309811A89990
:1020AB00B8130CC2983098FDA899C298B811F630A5
:0720BB0099FDC299F599227D
:10000E00E4FFFE12062B600C0FEF70010E09E97073
:05001E00F20A80EF2250
:101ADA0002159DE493A3F8E493A34003F68001F270
:101AEA0008DFF48029E493A3F85407240CC8C3330D
:101AFA00C4540F4420C8834004F456800146F6DFDC
:101B0A00E4800B0102040810204080901BC6E47E8A
:101B1A00019360BCA3FF543F30E509541FFEE493D0
:101B2A00A360010ECF54C025E060A840B8E493A397
:101B3A00FAE493A3F8E493A3C8C582C8CAC583CAC2
:101B4A00F0A3C8C582C8CAC583CADFE9DEE780BE7A
:011C240000BF
:1007830075F008758200EF2FFFEE33FECD33CDCC2D
:1007930033CCC58233C5829BED9AEC99E5829840B0
:1007A3000CF582EE9BFEED9AFDEC99FC0FD5F0D68D
:1007B300E4CEFBE4CDFAE4CCF9A88222B800C1B9B7
:1007C3000059BA002DEC8BF084CFCECDFCE5F0CBF5
:1007D300F97818EF2FFFEE33FEED33FDEC33FCEB2E
:1007E30033FB10D703994004EB99FB0FD8E5E4F9E9
:1007F300FA227818EF2FFFEE33FEED33FDEC33FCD6
:10080300C933C910D7059BE99A4007EC9BFCE99AC9
:10081300F90FD8E0E4C9FAE4CCFB2275F010EF2F0E
:10082300FFEE33FEED33FDCC33CCC833C810D7070E
:100833009BEC9AE899400AED9BFDEC9AFCE899F849
:0E0843000FD5F0DAE4CDFBE4CCFAE4C8F922DC
:00000001FF
